{
  "_format": "hh-sol-artifact-1",
  "contractName": "ERC20Base",
  "sourceName": "@thirdweb-dev/contracts/base/ERC20Base.sol",
  "abi": [
    {
      "inputs": [
        {
          "internalType": "address",
          "name": "_defaultAdmin",
          "type": "address"
        },
        {
          "internalType": "string",
          "name": "_name",
          "type": "string"
        },
        {
          "internalType": "string",
          "name": "_symbol",
          "type": "string"
        }
      ],
      "stateMutability": "nonpayable",
      "type": "constructor"
    },
    {
      "inputs": [],
      "name": "ContractMetadataUnauthorized",
      "type": "error"
    },
    {
      "inputs": [],
      "name": "OwnableUnauthorized",
      "type": "error"
    },
    {
      "anonymous": false,
      "inputs": [
        {
          "indexed": true,
          "internalType": "address",
          "name": "owner",
          "type": "address"
        },
        {
          "indexed": true,
          "internalType": "address",
          "name": "spender",
          "type": "address"
        },
        {
          "indexed": false,
          "internalType": "uint256",
          "name": "value",
          "type": "uint256"
        }
      ],
      "name": "Approval",
      "type": "event"
    },
    {
      "anonymous": false,
      "inputs": [
        {
          "indexed": false,
          "internalType": "string",
          "name": "prevURI",
          "type": "string"
        },
        {
          "indexed": false,
          "internalType": "string",
          "name": "newURI",
          "type": "string"
        }
      ],
      "name": "ContractURIUpdated",
      "type": "event"
    },
    {
      "anonymous": false,
      "inputs": [
        {
          "indexed": true,
          "internalType": "address",
          "name": "prevOwner",
          "type": "address"
        },
        {
          "indexed": true,
          "internalType": "address",
          "name": "newOwner",
          "type": "address"
        }
      ],
      "name": "OwnerUpdated",
      "type": "event"
    },
    {
      "anonymous": false,
      "inputs": [
        {
          "indexed": true,
          "internalType": "address",
          "name": "mintedTo",
          "type": "address"
        },
        {
          "indexed": false,
          "internalType": "uint256",
          "name": "quantityMinted",
          "type": "uint256"
        }
      ],
      "name": "TokensMinted",
      "type": "event"
    },
    {
      "anonymous": false,
      "inputs": [
        {
          "indexed": true,
          "internalType": "address",
          "name": "from",
          "type": "address"
        },
        {
          "indexed": true,
          "internalType": "address",
          "name": "to",
          "type": "address"
        },
        {
          "indexed": false,
          "internalType": "uint256",
          "name": "value",
          "type": "uint256"
        }
      ],
      "name": "Transfer",
      "type": "event"
    },
    {
      "inputs": [],
      "name": "DOMAIN_SEPARATOR",
      "outputs": [
        {
          "internalType": "bytes32",
          "name": "",
          "type": "bytes32"
        }
      ],
      "stateMutability": "view",
      "type": "function"
    },
    {
      "inputs": [
        {
          "internalType": "address",
          "name": "owner",
          "type": "address"
        },
        {
          "internalType": "address",
          "name": "spender",
          "type": "address"
        }
      ],
      "name": "allowance",
      "outputs": [
        {
          "internalType": "uint256",
          "name": "",
          "type": "uint256"
        }
      ],
      "stateMutability": "view",
      "type": "function"
    },
    {
      "inputs": [
        {
          "internalType": "address",
          "name": "spender",
          "type": "address"
        },
        {
          "internalType": "uint256",
          "name": "amount",
          "type": "uint256"
        }
      ],
      "name": "approve",
      "outputs": [
        {
          "internalType": "bool",
          "name": "",
          "type": "bool"
        }
      ],
      "stateMutability": "nonpayable",
      "type": "function"
    },
    {
      "inputs": [
        {
          "internalType": "address",
          "name": "account",
          "type": "address"
        }
      ],
      "name": "balanceOf",
      "outputs": [
        {
          "internalType": "uint256",
          "name": "",
          "type": "uint256"
        }
      ],
      "stateMutability": "view",
      "type": "function"
    },
    {
      "inputs": [
        {
          "internalType": "uint256",
          "name": "_amount",
          "type": "uint256"
        }
      ],
      "name": "burn",
      "outputs": [],
      "stateMutability": "nonpayable",
      "type": "function"
    },
    {
      "inputs": [
        {
          "internalType": "address",
          "name": "_account",
          "type": "address"
        },
        {
          "internalType": "uint256",
          "name": "_amount",
          "type": "uint256"
        }
      ],
      "name": "burnFrom",
      "outputs": [],
      "stateMutability": "nonpayable",
      "type": "function"
    },
    {
      "inputs": [],
      "name": "contractURI",
      "outputs": [
        {
          "internalType": "string",
          "name": "",
          "type": "string"
        }
      ],
      "stateMutability": "view",
      "type": "function"
    },
    {
      "inputs": [],
      "name": "decimals",
      "outputs": [
        {
          "internalType": "uint8",
          "name": "",
          "type": "uint8"
        }
      ],
      "stateMutability": "view",
      "type": "function"
    },
    {
      "inputs": [
        {
          "internalType": "address",
          "name": "spender",
          "type": "address"
        },
        {
          "internalType": "uint256",
          "name": "subtractedValue",
          "type": "uint256"
        }
      ],
      "name": "decreaseAllowance",
      "outputs": [
        {
          "internalType": "bool",
          "name": "",
          "type": "bool"
        }
      ],
      "stateMutability": "nonpayable",
      "type": "function"
    },
    {
      "inputs": [
        {
          "internalType": "address",
          "name": "spender",
          "type": "address"
        },
        {
          "internalType": "uint256",
          "name": "addedValue",
          "type": "uint256"
        }
      ],
      "name": "increaseAllowance",
      "outputs": [
        {
          "internalType": "bool",
          "name": "",
          "type": "bool"
        }
      ],
      "stateMutability": "nonpayable",
      "type": "function"
    },
    {
      "inputs": [
        {
          "internalType": "address",
          "name": "_to",
          "type": "address"
        },
        {
          "internalType": "uint256",
          "name": "_amount",
          "type": "uint256"
        }
      ],
      "name": "mintTo",
      "outputs": [],
      "stateMutability": "nonpayable",
      "type": "function"
    },
    {
      "inputs": [
        {
          "internalType": "bytes[]",
          "name": "data",
          "type": "bytes[]"
        }
      ],
      "name": "multicall",
      "outputs": [
        {
          "internalType": "bytes[]",
          "name": "results",
          "type": "bytes[]"
        }
      ],
      "stateMutability": "nonpayable",
      "type": "function"
    },
    {
      "inputs": [],
      "name": "name",
      "outputs": [
        {
          "internalType": "string",
          "name": "",
          "type": "string"
        }
      ],
      "stateMutability": "view",
      "type": "function"
    },
    {
      "inputs": [
        {
          "internalType": "address",
          "name": "owner",
          "type": "address"
        }
      ],
      "name": "nonces",
      "outputs": [
        {
          "internalType": "uint256",
          "name": "",
          "type": "uint256"
        }
      ],
      "stateMutability": "view",
      "type": "function"
    },
    {
      "inputs": [],
      "name": "owner",
      "outputs": [
        {
          "internalType": "address",
          "name": "",
          "type": "address"
        }
      ],
      "stateMutability": "view",
      "type": "function"
    },
    {
      "inputs": [
        {
          "internalType": "address",
          "name": "owner",
          "type": "address"
        },
        {
          "internalType": "address",
          "name": "spender",
          "type": "address"
        },
        {
          "internalType": "uint256",
          "name": "value",
          "type": "uint256"
        },
        {
          "internalType": "uint256",
          "name": "deadline",
          "type": "uint256"
        },
        {
          "internalType": "uint8",
          "name": "v",
          "type": "uint8"
        },
        {
          "internalType": "bytes32",
          "name": "r",
          "type": "bytes32"
        },
        {
          "internalType": "bytes32",
          "name": "s",
          "type": "bytes32"
        }
      ],
      "name": "permit",
      "outputs": [],
      "stateMutability": "nonpayable",
      "type": "function"
    },
    {
      "inputs": [
        {
          "internalType": "string",
          "name": "_uri",
          "type": "string"
        }
      ],
      "name": "setContractURI",
      "outputs": [],
      "stateMutability": "nonpayable",
      "type": "function"
    },
    {
      "inputs": [
        {
          "internalType": "address",
          "name": "_newOwner",
          "type": "address"
        }
      ],
      "name": "setOwner",
      "outputs": [],
      "stateMutability": "nonpayable",
      "type": "function"
    },
    {
      "inputs": [],
      "name": "symbol",
      "outputs": [
        {
          "internalType": "string",
          "name": "",
          "type": "string"
        }
      ],
      "stateMutability": "view",
      "type": "function"
    },
    {
      "inputs": [],
      "name": "totalSupply",
      "outputs": [
        {
          "internalType": "uint256",
          "name": "",
          "type": "uint256"
        }
      ],
      "stateMutability": "view",
      "type": "function"
    },
    {
      "inputs": [
        {
          "internalType": "address",
          "name": "to",
          "type": "address"
        },
        {
          "internalType": "uint256",
          "name": "amount",
          "type": "uint256"
        }
      ],
      "name": "transfer",
      "outputs": [
        {
          "internalType": "bool",
          "name": "",
          "type": "bool"
        }
      ],
      "stateMutability": "nonpayable",
      "type": "function"
    },
    {
      "inputs": [
        {
          "internalType": "address",
          "name": "from",
          "type": "address"
        },
        {
          "internalType": "address",
          "name": "to",
          "type": "address"
        },
        {
          "internalType": "uint256",
          "name": "amount",
          "type": "uint256"
        }
      ],
      "name": "transferFrom",
      "outputs": [
        {
          "internalType": "bool",
          "name": "",
          "type": "bool"
        }
      ],
      "stateMutability": "nonpayable",
      "type": "function"
    }
  ],
  "bytecode": "0x6101006040527f6e71edae12b1b97f4d1f60370fef10105fa2faae0126114a169c64845d6126c960e0523480156200003657600080fd5b5060405162002136380380620021368339810160408190526200005991620003b0565b818181818160059080519060200190620000759291906200023d565b5080516200008b9060069060208401906200023d565b50504660a052503060c052620000a0620000ba565b60805250620000b190508362000151565b50505062000477565b60007f8b73c3c69bb8fe3d512ecc4cf759cc79239f7b179b0ffacaa9a75d522b39400f620000e7620001a3565b80516020918201206040805192830193909352918101919091527fc89efdaa54c0f20c7adf612882df0950f5a951637e0307cdcb4c672f298b8bc660608201524660808201523060a082015260c00160405160208183030381529060405280519060200120905090565b600180546001600160a01b038381166001600160a01b0319831681179093556040519116919082907f8292fce18fa69edf4db7b94ea2e58241df0ae57f97e0a6c9b29067028bf92d7690600090a35050565b606060058054620001b4906200043a565b80601f0160208091040260200160405190810160405280929190818152602001828054620001e2906200043a565b8015620002335780601f10620002075761010080835404028352916020019162000233565b820191906000526020600020905b8154815290600101906020018083116200021557829003601f168201915b5050505050905090565b8280546200024b906200043a565b90600052602060002090601f0160209004810192826200026f5760008555620002ba565b82601f106200028a57805160ff1916838001178555620002ba565b82800160010185558215620002ba579182015b82811115620002ba5782518255916020019190600101906200029d565b50620002c8929150620002cc565b5090565b5b80821115620002c85760008155600101620002cd565b634e487b7160e01b600052604160045260246000fd5b600082601f8301126200030b57600080fd5b81516001600160401b0380821115620003285762000328620002e3565b604051601f8301601f19908116603f01168101908282118183101715620003535762000353620002e3565b816040528381526020925086838588010111156200037057600080fd5b600091505b8382101562000394578582018301518183018401529082019062000375565b83821115620003a65760008385830101525b9695505050505050565b600080600060608486031215620003c657600080fd5b83516001600160a01b0381168114620003de57600080fd5b60208501519093506001600160401b0380821115620003fc57600080fd5b6200040a87838801620002f9565b935060408601519150808211156200042157600080fd5b506200043086828701620002f9565b9150509250925092565b600181811c908216806200044f57607f821691505b602082108114156200047157634e487b7160e01b600052602260045260246000fd5b50919050565b60805160a05160c05160e051611c85620004b1600039600061098f0152600061042d01526000610457015260006104810152611c856000f3fe608060405234801561001057600080fd5b50600436106101425760003560e01c806379cc6790116100b8578063a457c2d71161007c578063a457c2d7146102ad578063a9059cbb146102c0578063ac9650d8146102d3578063d505accf146102f3578063dd62ed3e14610306578063e8a3d4851461031957600080fd5b806379cc67901461023b5780637ecebe001461024e5780638da5cb5b14610277578063938e3d7b1461029257806395d89b41146102a557600080fd5b8063313ce5671161010a578063313ce567146101c25780633644e515146101d157806339509351146101d957806342966c68146101ec578063449a52f8146101ff57806370a082311461021257600080fd5b806306fdde0314610147578063095ea7b31461016557806313af40351461018857806318160ddd1461019d57806323b872dd146101af575b600080fd5b61014f610321565b60405161015c919061179c565b60405180910390f35b6101786101733660046117cb565b6103b3565b604051901515815260200161015c565b61019b6101963660046117f5565b6103cb565b005b6004545b60405190815260200161015c565b6101786101bd366004611810565b6103fc565b6040516012815260200161015c565b6101a1610420565b6101786101e73660046117cb565b6104b0565b61019b6101fa36600461184c565b6104ef565b61019b61020d3660046117cb565b610552565b6101a16102203660046117f5565b6001600160a01b031660009081526002602052604090205490565b61019b6102493660046117cb565b6105f8565b6101a161025c3660046117f5565b6001600160a01b031660009081526007602052604090205490565b6001546040516001600160a01b03909116815260200161015c565b61019b6102a036600461187b565b6106ee565b61014f61071c565b6101786102bb3660046117cb565b61072b565b6101786102ce3660046117cb565b6107bd565b6102e66102e136600461192c565b6107cb565b60405161015c91906119a1565b61019b610301366004611a03565b61093b565b6101a1610314366004611a76565b610ac1565b61014f610aec565b60606005805461033090611aa9565b80601f016020809104026020016040519081016040528092919081815260200182805461035c90611aa9565b80156103a95780601f1061037e576101008083540402835291602001916103a9565b820191906000526020600020905b81548152906001019060200180831161038c57829003601f168201915b5050505050905090565b6000336103c1818585610b7a565b5060019392505050565b6103d3610c9e565b6103f0576040516316ccb9cb60e11b815260040160405180910390fd5b6103f981610ccb565b50565b60003361040a858285610d1d565b610415858585610d97565b506001949350505050565b6000306001600160a01b037f00000000000000000000000000000000000000000000000000000000000000001614801561047957507f000000000000000000000000000000000000000000000000000000000000000046145b156104a357507f000000000000000000000000000000000000000000000000000000000000000090565b6104ab610f65565b905090565b3360008181526003602090815260408083206001600160a01b03871684529091528120549091906103c190829086906104ea908790611af4565b610b7a565b336000908152600260205260409020548111156105485760405162461bcd60e51b81526020600482015260126024820152716e6f7420656e6f7567682062616c616e636560701b60448201526064015b60405180910390fd5b6103f93382610ffa565b61055a610c9e565b6105a65760405162461bcd60e51b815260206004820152601760248201527f4e6f7420617574686f72697a656420746f206d696e742e000000000000000000604482015260640161053f565b806105ea5760405162461bcd60e51b815260206004820152601460248201527326b4b73a34b733903d32b937903a37b5b2b7399760611b604482015260640161053f565b6105f48282611148565b5050565b610600610c9e565b61064c5760405162461bcd60e51b815260206004820152601760248201527f4e6f7420617574686f72697a656420746f206275726e2e000000000000000000604482015260640161053f565b8061066c836001600160a01b031660009081526002602052604090205490565b10156106af5760405162461bcd60e51b81526020600482015260126024820152716e6f7420656e6f7567682062616c616e636560701b604482015260640161053f565b6000816106bc8433610ac1565b6106c69190611b0c565b90506106d483336000610b7a565b6106df833383610b7a565b6106e98383610ffa565b505050565b6106f6610c9e565b61071357604051639f7f092560e01b815260040160405180910390fd5b6103f981611227565b60606006805461033090611aa9565b3360008181526003602090815260408083206001600160a01b0387168452909152812054909190838110156107b05760405162461bcd60e51b815260206004820152602560248201527f45524332303a2064656372656173656420616c6c6f77616e63652062656c6f77604482015264207a65726f60d81b606482015260840161053f565b6104158286868403610b7a565b6000336103c1818585610d97565b60608167ffffffffffffffff8111156107e6576107e6611865565b60405190808252806020026020018201604052801561081957816020015b60608152602001906001900390816108045790505b509050336000805b848110156109325781156108a05761087e3087878481811061084557610845611b23565b90506020028101906108579190611b39565b8660405160200161086a93929190611b87565b604051602081830303815290604052611308565b84828151811061089057610890611b23565b6020026020010181905250610920565b610902308787848181106108b6576108b6611b23565b90506020028101906108c89190611b39565b8080601f01602080910402602001604051908101604052809392919081815260200183838082843760009201919091525061130892505050565b84828151811061091457610914611b23565b60200260200101819052505b8061092a81611bad565b915050610821565b50505092915050565b8342111561098b5760405162461bcd60e51b815260206004820152601d60248201527f45524332305065726d69743a206578706972656420646561646c696e65000000604482015260640161053f565b60007f00000000000000000000000000000000000000000000000000000000000000008888886109ba8c611334565b6040805160208101969096526001600160a01b0394851690860152929091166060840152608083015260a082015260c0810186905260e0016040516020818303038152906040528051906020012090506000610a37610a17610420565b8360405161190160f01b8152600281019290925260228201526042902090565b90506000610a478287878761135c565b9050896001600160a01b0316816001600160a01b031614610aaa5760405162461bcd60e51b815260206004820152601e60248201527f45524332305065726d69743a20696e76616c6964207369676e61747572650000604482015260640161053f565b610ab58a8a8a610b7a565b50505050505050505050565b6001600160a01b03918216600090815260036020908152604080832093909416825291909152205490565b60008054610af990611aa9565b80601f0160208091040260200160405190810160405280929190818152602001828054610b2590611aa9565b8015610b725780601f10610b4757610100808354040283529160200191610b72565b820191906000526020600020905b815481529060010190602001808311610b5557829003601f168201915b505050505081565b6001600160a01b038316610bdc5760405162461bcd60e51b8152602060048201526024808201527f45524332303a20617070726f76652066726f6d20746865207a65726f206164646044820152637265737360e01b606482015260840161053f565b6001600160a01b038216610c3d5760405162461bcd60e51b815260206004820152602260248201527f45524332303a20617070726f766520746f20746865207a65726f206164647265604482015261737360f01b606482015260840161053f565b6001600160a01b0383811660008181526003602090815260408083209487168084529482529182902085905590518481527f8c5be1e5ebec7d5bd14f71427d1e84f3dd0314c0f7b2291e5b200ac8c7c3b925910160405180910390a3505050565b6000610cb26001546001600160a01b031690565b6001600160a01b0316336001600160a01b031614905090565b600180546001600160a01b038381166001600160a01b0319831681179093556040519116919082907f8292fce18fa69edf4db7b94ea2e58241df0ae57f97e0a6c9b29067028bf92d7690600090a35050565b6000610d298484610ac1565b90506000198114610d915781811015610d845760405162461bcd60e51b815260206004820152601d60248201527f45524332303a20696e73756666696369656e7420616c6c6f77616e6365000000604482015260640161053f565b610d918484848403610b7a565b50505050565b6001600160a01b038316610dfb5760405162461bcd60e51b815260206004820152602560248201527f45524332303a207472616e736665722066726f6d20746865207a65726f206164604482015264647265737360d81b606482015260840161053f565b6001600160a01b038216610e5d5760405162461bcd60e51b815260206004820152602360248201527f45524332303a207472616e7366657220746f20746865207a65726f206164647260448201526265737360e81b606482015260840161053f565b6001600160a01b03831660009081526002602052604090205481811015610ed55760405162461bcd60e51b815260206004820152602660248201527f45524332303a207472616e7366657220616d6f756e7420657863656564732062604482015265616c616e636560d01b606482015260840161053f565b6001600160a01b03808516600090815260026020526040808220858503905591851681529081208054849290610f0c908490611af4565b92505081905550826001600160a01b0316846001600160a01b03167fddf252ad1be2c89b69c2b068fc378daa952ba7f163c4a11628f55a4df523b3ef84604051610f5891815260200190565b60405180910390a3610d91565b60007f8b73c3c69bb8fe3d512ecc4cf759cc79239f7b179b0ffacaa9a75d522b39400f610f90610321565b80516020918201206040805192830193909352918101919091527fc89efdaa54c0f20c7adf612882df0950f5a951637e0307cdcb4c672f298b8bc660608201524660808201523060a082015260c00160405160208183030381529060405280519060200120905090565b6001600160a01b03821661105a5760405162461bcd60e51b815260206004820152602160248201527f45524332303a206275726e2066726f6d20746865207a65726f206164647265736044820152607360f81b606482015260840161053f565b6001600160a01b038216600090815260026020526040902054818110156110ce5760405162461bcd60e51b815260206004820152602260248201527f45524332303a206275726e20616d6f756e7420657863656564732062616c616e604482015261636560f01b606482015260840161053f565b6001600160a01b03831660009081526002602052604081208383039055600480548492906110fd908490611b0c565b90915550506040518281526000906001600160a01b038516907fddf252ad1be2c89b69c2b068fc378daa952ba7f163c4a11628f55a4df523b3ef9060200160405180910390a3505050565b6001600160a01b03821661119e5760405162461bcd60e51b815260206004820152601f60248201527f45524332303a206d696e7420746f20746865207a65726f206164647265737300604482015260640161053f565b80600460008282546111b09190611af4565b90915550506001600160a01b038216600090815260026020526040812080548392906111dd908490611af4565b90915550506040518181526001600160a01b038316906000907fddf252ad1be2c89b69c2b068fc378daa952ba7f163c4a11628f55a4df523b3ef9060200160405180910390a35050565b600080805461123590611aa9565b80601f016020809104026020016040519081016040528092919081815260200182805461126190611aa9565b80156112ae5780601f10611283576101008083540402835291602001916112ae565b820191906000526020600020905b81548152906001019060200180831161129157829003601f168201915b505085519394506112ca936000935060208701925090506116ab565b507fc9c7c3fe08b88b4df9d4d47ef47d2c43d55c025a0ba88ca442580ed9e7348a1681836040516112fc929190611bc8565b60405180910390a15050565b606061132d8383604051806060016040528060278152602001611c2960279139611386565b9392505050565b6001600160a01b03811660009081526007602052604090208054600181018255905b50919050565b600080600061136d878787876113fe565b9150915061137a816114c2565b5090505b949350505050565b6060600080856001600160a01b0316856040516113a39190611bf6565b600060405180830381855af49150503d80600081146113de576040519150601f19603f3d011682016040523d82523d6000602084013e6113e3565b606091505b50915091506113f486838387611610565b9695505050505050565b6000807f7fffffffffffffffffffffffffffffff5d576e7357a4501ddfe92f46681b20a083111561143557506000905060036114b9565b6040805160008082526020820180845289905260ff881692820192909252606081018690526080810185905260019060a0016020604051602081039080840390855afa158015611489573d6000803e3d6000fd5b5050604051601f1901519150506001600160a01b0381166114b2576000600192509250506114b9565b9150600090505b94509492505050565b60008160048111156114d6576114d6611c12565b14156114df5750565b60018160048111156114f3576114f3611c12565b14156115415760405162461bcd60e51b815260206004820152601860248201527f45434453413a20696e76616c6964207369676e61747572650000000000000000604482015260640161053f565b600281600481111561155557611555611c12565b14156115a35760405162461bcd60e51b815260206004820152601f60248201527f45434453413a20696e76616c6964207369676e6174757265206c656e67746800604482015260640161053f565b60038160048111156115b7576115b7611c12565b14156103f95760405162461bcd60e51b815260206004820152602260248201527f45434453413a20696e76616c6964207369676e6174757265202773272076616c604482015261756560f01b606482015260840161053f565b6060831561167c578251611675576001600160a01b0385163b6116755760405162461bcd60e51b815260206004820152601d60248201527f416464726573733a2063616c6c20746f206e6f6e2d636f6e7472616374000000604482015260640161053f565b508161137e565b61137e83838151156116915781518083602001fd5b8060405162461bcd60e51b815260040161053f919061179c565b8280546116b790611aa9565b90600052602060002090601f0160209004810192826116d9576000855561171f565b82601f106116f257805160ff191683800117855561171f565b8280016001018555821561171f579182015b8281111561171f578251825591602001919060010190611704565b5061172b92915061172f565b5090565b5b8082111561172b5760008155600101611730565b60005b8381101561175f578181015183820152602001611747565b83811115610d915750506000910152565b60008151808452611788816020860160208601611744565b601f01601f19169290920160200192915050565b60208152600061132d6020830184611770565b80356001600160a01b03811681146117c657600080fd5b919050565b600080604083850312156117de57600080fd5b6117e7836117af565b946020939093013593505050565b60006020828403121561180757600080fd5b61132d826117af565b60008060006060848603121561182557600080fd5b61182e846117af565b925061183c602085016117af565b9150604084013590509250925092565b60006020828403121561185e57600080fd5b5035919050565b634e487b7160e01b600052604160045260246000fd5b60006020828403121561188d57600080fd5b813567ffffffffffffffff808211156118a557600080fd5b818401915084601f8301126118b957600080fd5b8135818111156118cb576118cb611865565b604051601f8201601f19908116603f011681019083821181831017156118f3576118f3611865565b8160405282815287602084870101111561190c57600080fd5b826020860160208301376000928101602001929092525095945050505050565b6000806020838503121561193f57600080fd5b823567ffffffffffffffff8082111561195757600080fd5b818501915085601f83011261196b57600080fd5b81358181111561197a57600080fd5b8660208260051b850101111561198f57600080fd5b60209290920196919550909350505050565b6000602080830181845280855180835260408601915060408160051b870101925083870160005b828110156119f657603f198886030184526119e4858351611770565b945092850192908501906001016119c8565b5092979650505050505050565b600080600080600080600060e0888a031215611a1e57600080fd5b611a27886117af565b9650611a35602089016117af565b95506040880135945060608801359350608088013560ff81168114611a5957600080fd5b9699959850939692959460a0840135945060c09093013592915050565b60008060408385031215611a8957600080fd5b611a92836117af565b9150611aa0602084016117af565b90509250929050565b600181811c90821680611abd57607f821691505b6020821081141561135657634e487b7160e01b600052602260045260246000fd5b634e487b7160e01b600052601160045260246000fd5b60008219821115611b0757611b07611ade565b500190565b600082821015611b1e57611b1e611ade565b500390565b634e487b7160e01b600052603260045260246000fd5b6000808335601e19843603018112611b5057600080fd5b83018035915067ffffffffffffffff821115611b6b57600080fd5b602001915036819003821315611b8057600080fd5b9250929050565b8284823760609190911b6bffffffffffffffffffffffff19169101908152601401919050565b6000600019821415611bc157611bc1611ade565b5060010190565b604081526000611bdb6040830185611770565b8281036020840152611bed8185611770565b95945050505050565b60008251611c08818460208701611744565b9190910192915050565b634e487b7160e01b600052602160045260246000fdfe416464726573733a206c6f772d6c6576656c2064656c65676174652063616c6c206661696c6564a264697066735822122058af40b46e6a8fc4f1002b4e73fbc953bb38bf5fb7915f87c2a7f6fce8e706ce64736f6c63430008090033",
  "linkReferences": {},
  "deployedLinkReferences": {}
}