{
  "_format": "hh-sol-artifact-1",
  "contractName": "DEX",
  "sourceName": "contracts/DEX.sol",
  "abi": [
    {
      "inputs": [
        {
          "internalType": "address",
          "name": "_token",
          "type": "address"
        },
        {
          "internalType": "address",
          "name": "_defaultAdmin",
          "type": "address"
        },
        {
          "internalType": "string",
          "name": "_name",
          "type": "string"
        },
        {
          "internalType": "string",
          "name": "_symbol",
          "type": "string"
        }
      ],
      "stateMutability": "nonpayable",
      "type": "constructor"
    },
    {
      "inputs": [],
      "name": "ContractMetadataUnauthorized",
      "type": "error"
    },
    {
      "inputs": [],
      "name": "OwnableUnauthorized",
      "type": "error"
    },
    {
      "anonymous": false,
      "inputs": [
        {
          "indexed": true,
          "internalType": "address",
          "name": "owner",
          "type": "address"
        },
        {
          "indexed": true,
          "internalType": "address",
          "name": "spender",
          "type": "address"
        },
        {
          "indexed": false,
          "internalType": "uint256",
          "name": "value",
          "type": "uint256"
        }
      ],
      "name": "Approval",
      "type": "event"
    },
    {
      "anonymous": false,
      "inputs": [
        {
          "indexed": false,
          "internalType": "string",
          "name": "prevURI",
          "type": "string"
        },
        {
          "indexed": false,
          "internalType": "string",
          "name": "newURI",
          "type": "string"
        }
      ],
      "name": "ContractURIUpdated",
      "type": "event"
    },
    {
      "anonymous": false,
      "inputs": [
        {
          "indexed": true,
          "internalType": "address",
          "name": "prevOwner",
          "type": "address"
        },
        {
          "indexed": true,
          "internalType": "address",
          "name": "newOwner",
          "type": "address"
        }
      ],
      "name": "OwnerUpdated",
      "type": "event"
    },
    {
      "anonymous": false,
      "inputs": [
        {
          "indexed": true,
          "internalType": "address",
          "name": "mintedTo",
          "type": "address"
        },
        {
          "indexed": false,
          "internalType": "uint256",
          "name": "quantityMinted",
          "type": "uint256"
        }
      ],
      "name": "TokensMinted",
      "type": "event"
    },
    {
      "anonymous": false,
      "inputs": [
        {
          "indexed": true,
          "internalType": "address",
          "name": "from",
          "type": "address"
        },
        {
          "indexed": true,
          "internalType": "address",
          "name": "to",
          "type": "address"
        },
        {
          "indexed": false,
          "internalType": "uint256",
          "name": "value",
          "type": "uint256"
        }
      ],
      "name": "Transfer",
      "type": "event"
    },
    {
      "inputs": [],
      "name": "DOMAIN_SEPARATOR",
      "outputs": [
        {
          "internalType": "bytes32",
          "name": "",
          "type": "bytes32"
        }
      ],
      "stateMutability": "view",
      "type": "function"
    },
    {
      "inputs": [
        {
          "internalType": "uint256",
          "name": "_amount",
          "type": "uint256"
        }
      ],
      "name": "addLiquidity",
      "outputs": [
        {
          "internalType": "uint256",
          "name": "",
          "type": "uint256"
        }
      ],
      "stateMutability": "payable",
      "type": "function"
    },
    {
      "inputs": [
        {
          "internalType": "address",
          "name": "owner",
          "type": "address"
        },
        {
          "internalType": "address",
          "name": "spender",
          "type": "address"
        }
      ],
      "name": "allowance",
      "outputs": [
        {
          "internalType": "uint256",
          "name": "",
          "type": "uint256"
        }
      ],
      "stateMutability": "view",
      "type": "function"
    },
    {
      "inputs": [
        {
          "internalType": "address",
          "name": "spender",
          "type": "address"
        },
        {
          "internalType": "uint256",
          "name": "amount",
          "type": "uint256"
        }
      ],
      "name": "approve",
      "outputs": [
        {
          "internalType": "bool",
          "name": "",
          "type": "bool"
        }
      ],
      "stateMutability": "nonpayable",
      "type": "function"
    },
    {
      "inputs": [
        {
          "internalType": "address",
          "name": "account",
          "type": "address"
        }
      ],
      "name": "balanceOf",
      "outputs": [
        {
          "internalType": "uint256",
          "name": "",
          "type": "uint256"
        }
      ],
      "stateMutability": "view",
      "type": "function"
    },
    {
      "inputs": [
        {
          "internalType": "uint256",
          "name": "_amount",
          "type": "uint256"
        }
      ],
      "name": "burn",
      "outputs": [],
      "stateMutability": "nonpayable",
      "type": "function"
    },
    {
      "inputs": [
        {
          "internalType": "address",
          "name": "_account",
          "type": "address"
        },
        {
          "internalType": "uint256",
          "name": "_amount",
          "type": "uint256"
        }
      ],
      "name": "burnFrom",
      "outputs": [],
      "stateMutability": "nonpayable",
      "type": "function"
    },
    {
      "inputs": [],
      "name": "contractURI",
      "outputs": [
        {
          "internalType": "string",
          "name": "",
          "type": "string"
        }
      ],
      "stateMutability": "view",
      "type": "function"
    },
    {
      "inputs": [],
      "name": "decimals",
      "outputs": [
        {
          "internalType": "uint8",
          "name": "",
          "type": "uint8"
        }
      ],
      "stateMutability": "view",
      "type": "function"
    },
    {
      "inputs": [
        {
          "internalType": "address",
          "name": "spender",
          "type": "address"
        },
        {
          "internalType": "uint256",
          "name": "subtractedValue",
          "type": "uint256"
        }
      ],
      "name": "decreaseAllowance",
      "outputs": [
        {
          "internalType": "bool",
          "name": "",
          "type": "bool"
        }
      ],
      "stateMutability": "nonpayable",
      "type": "function"
    },
    {
      "inputs": [
        {
          "internalType": "uint256",
          "name": "inputAmount",
          "type": "uint256"
        },
        {
          "internalType": "uint256",
          "name": "inputReserve",
          "type": "uint256"
        },
        {
          "internalType": "uint256",
          "name": "outputReserve",
          "type": "uint256"
        }
      ],
      "name": "getAmountOfTokens",
      "outputs": [
        {
          "internalType": "uint256",
          "name": "",
          "type": "uint256"
        }
      ],
      "stateMutability": "pure",
      "type": "function"
    },
    {
      "inputs": [],
      "name": "getTokensInContract",
      "outputs": [
        {
          "internalType": "uint256",
          "name": "",
          "type": "uint256"
        }
      ],
      "stateMutability": "view",
      "type": "function"
    },
    {
      "inputs": [
        {
          "internalType": "address",
          "name": "spender",
          "type": "address"
        },
        {
          "internalType": "uint256",
          "name": "addedValue",
          "type": "uint256"
        }
      ],
      "name": "increaseAllowance",
      "outputs": [
        {
          "internalType": "bool",
          "name": "",
          "type": "bool"
        }
      ],
      "stateMutability": "nonpayable",
      "type": "function"
    },
    {
      "inputs": [
        {
          "internalType": "address",
          "name": "_to",
          "type": "address"
        },
        {
          "internalType": "uint256",
          "name": "_amount",
          "type": "uint256"
        }
      ],
      "name": "mintTo",
      "outputs": [],
      "stateMutability": "nonpayable",
      "type": "function"
    },
    {
      "inputs": [
        {
          "internalType": "bytes[]",
          "name": "data",
          "type": "bytes[]"
        }
      ],
      "name": "multicall",
      "outputs": [
        {
          "internalType": "bytes[]",
          "name": "results",
          "type": "bytes[]"
        }
      ],
      "stateMutability": "nonpayable",
      "type": "function"
    },
    {
      "inputs": [],
      "name": "name",
      "outputs": [
        {
          "internalType": "string",
          "name": "",
          "type": "string"
        }
      ],
      "stateMutability": "view",
      "type": "function"
    },
    {
      "inputs": [
        {
          "internalType": "address",
          "name": "owner",
          "type": "address"
        }
      ],
      "name": "nonces",
      "outputs": [
        {
          "internalType": "uint256",
          "name": "",
          "type": "uint256"
        }
      ],
      "stateMutability": "view",
      "type": "function"
    },
    {
      "inputs": [],
      "name": "owner",
      "outputs": [
        {
          "internalType": "address",
          "name": "",
          "type": "address"
        }
      ],
      "stateMutability": "view",
      "type": "function"
    },
    {
      "inputs": [
        {
          "internalType": "address",
          "name": "owner",
          "type": "address"
        },
        {
          "internalType": "address",
          "name": "spender",
          "type": "address"
        },
        {
          "internalType": "uint256",
          "name": "value",
          "type": "uint256"
        },
        {
          "internalType": "uint256",
          "name": "deadline",
          "type": "uint256"
        },
        {
          "internalType": "uint8",
          "name": "v",
          "type": "uint8"
        },
        {
          "internalType": "bytes32",
          "name": "r",
          "type": "bytes32"
        },
        {
          "internalType": "bytes32",
          "name": "s",
          "type": "bytes32"
        }
      ],
      "name": "permit",
      "outputs": [],
      "stateMutability": "nonpayable",
      "type": "function"
    },
    {
      "inputs": [
        {
          "internalType": "uint256",
          "name": "_amount",
          "type": "uint256"
        }
      ],
      "name": "removeLiquidity",
      "outputs": [
        {
          "internalType": "uint256",
          "name": "",
          "type": "uint256"
        },
        {
          "internalType": "uint256",
          "name": "",
          "type": "uint256"
        }
      ],
      "stateMutability": "nonpayable",
      "type": "function"
    },
    {
      "inputs": [
        {
          "internalType": "string",
          "name": "_uri",
          "type": "string"
        }
      ],
      "name": "setContractURI",
      "outputs": [],
      "stateMutability": "nonpayable",
      "type": "function"
    },
    {
      "inputs": [
        {
          "internalType": "address",
          "name": "_newOwner",
          "type": "address"
        }
      ],
      "name": "setOwner",
      "outputs": [],
      "stateMutability": "nonpayable",
      "type": "function"
    },
    {
      "inputs": [],
      "name": "swapEthTotoken",
      "outputs": [],
      "stateMutability": "payable",
      "type": "function"
    },
    {
      "inputs": [
        {
          "internalType": "uint256",
          "name": "_tokensSold",
          "type": "uint256"
        }
      ],
      "name": "swapTokenToEth",
      "outputs": [],
      "stateMutability": "nonpayable",
      "type": "function"
    },
    {
      "inputs": [],
      "name": "symbol",
      "outputs": [
        {
          "internalType": "string",
          "name": "",
          "type": "string"
        }
      ],
      "stateMutability": "view",
      "type": "function"
    },
    {
      "inputs": [],
      "name": "token",
      "outputs": [
        {
          "internalType": "address",
          "name": "",
          "type": "address"
        }
      ],
      "stateMutability": "view",
      "type": "function"
    },
    {
      "inputs": [],
      "name": "totalSupply",
      "outputs": [
        {
          "internalType": "uint256",
          "name": "",
          "type": "uint256"
        }
      ],
      "stateMutability": "view",
      "type": "function"
    },
    {
      "inputs": [
        {
          "internalType": "address",
          "name": "to",
          "type": "address"
        },
        {
          "internalType": "uint256",
          "name": "amount",
          "type": "uint256"
        }
      ],
      "name": "transfer",
      "outputs": [
        {
          "internalType": "bool",
          "name": "",
          "type": "bool"
        }
      ],
      "stateMutability": "nonpayable",
      "type": "function"
    },
    {
      "inputs": [
        {
          "internalType": "address",
          "name": "from",
          "type": "address"
        },
        {
          "internalType": "address",
          "name": "to",
          "type": "address"
        },
        {
          "internalType": "uint256",
          "name": "amount",
          "type": "uint256"
        }
      ],
      "name": "transferFrom",
      "outputs": [
        {
          "internalType": "bool",
          "name": "",
          "type": "bool"
        }
      ],
      "stateMutability": "nonpayable",
      "type": "function"
    }
  ],
  "bytecode": "0x6101006040527f6e71edae12b1b97f4d1f60370fef10105fa2faae0126114a169c64845d6126c960e0523480156200003657600080fd5b5060405162002aaf38038062002aaf8339810160408190526200005991620003f5565b8282828181818181600590805190602001906200007892919062000265565b5080516200008e90600690602084019062000265565b50504660a052503060c052620000a3620000e2565b60805250620000b490508362000179565b5050600880546001600160a01b0319166001600160a01b03969096169590951790945550620004c292505050565b60007f8b73c3c69bb8fe3d512ecc4cf759cc79239f7b179b0ffacaa9a75d522b39400f6200010f620001cb565b80516020918201206040805192830193909352918101919091527fc89efdaa54c0f20c7adf612882df0950f5a951637e0307cdcb4c672f298b8bc660608201524660808201523060a082015260c00160405160208183030381529060405280519060200120905090565b600180546001600160a01b038381166001600160a01b0319831681179093556040519116919082907f8292fce18fa69edf4db7b94ea2e58241df0ae57f97e0a6c9b29067028bf92d7690600090a35050565b606060058054620001dc9062000485565b80601f01602080910402602001604051908101604052809291908181526020018280546200020a9062000485565b80156200025b5780601f106200022f576101008083540402835291602001916200025b565b820191906000526020600020905b8154815290600101906020018083116200023d57829003601f168201915b5050505050905090565b828054620002739062000485565b90600052602060002090601f016020900481019282620002975760008555620002e2565b82601f10620002b257805160ff1916838001178555620002e2565b82800160010185558215620002e2579182015b82811115620002e2578251825591602001919060010190620002c5565b50620002f0929150620002f4565b5090565b5b80821115620002f05760008155600101620002f5565b80516001600160a01b03811681146200032357600080fd5b919050565b634e487b7160e01b600052604160045260246000fd5b600082601f8301126200035057600080fd5b81516001600160401b03808211156200036d576200036d62000328565b604051601f8301601f19908116603f0116810190828211818310171562000398576200039862000328565b81604052838152602092508683858801011115620003b557600080fd5b600091505b83821015620003d95785820183015181830184015290820190620003ba565b83821115620003eb5760008385830101525b9695505050505050565b600080600080608085870312156200040c57600080fd5b62000417856200030b565b935062000427602086016200030b565b60408601519093506001600160401b03808211156200044557600080fd5b62000453888389016200033e565b935060608701519150808211156200046a57600080fd5b5062000479878288016200033e565b91505092959194509250565b600181811c908216806200049a57607f821691505b60208210811415620004bc57634e487b7160e01b600052602260045260246000fd5b50919050565b60805160a05160c05160e0516125b3620004fc60003960006112050152600061073d015260006107670152600061079101526125b36000f3fe6080604052600436106101c25760003560e01c80637386479e116100f7578063a457c2d711610095578063d505accf11610064578063d505accf14610519578063dd62ed3e14610539578063e8a3d48514610559578063fc0c546a1461056e57600080fd5b8063a457c2d71461048c578063a9059cbb146104ac578063ac9650d8146104cc578063c722ecc4146104f957600080fd5b80638da5cb5b116100d15780638da5cb5b146103f0578063938e3d7b1461042257806395d89b41146104425780639c8f9f231461045757600080fd5b80637386479e1461037a57806379cc67901461039a5780637ecebe00146103ba57600080fd5b80633644e5151161016457806342966c681161013e57806342966c68146102f1578063449a52f81461031157806351c6590a1461033157806370a082311461034457600080fd5b80633644e515146102a757806339509351146102bc5780633c2f1806146102dc57600080fd5b806318160ddd116101a057806318160ddd1461024457806323b872dd14610263578063313ce567146102835780633575745d1461029f57600080fd5b806306fdde03146101c7578063095ea7b3146101f257806313af403514610222575b600080fd5b3480156101d357600080fd5b506101dc61058e565b6040516101e9919061200c565b60405180910390f35b3480156101fe57600080fd5b5061021261020d36600461203b565b610620565b60405190151581526020016101e9565b34801561022e57600080fd5b5061024261023d366004612065565b610638565b005b34801561025057600080fd5b506004545b6040519081526020016101e9565b34801561026f57600080fd5b5061021261027e366004612080565b610669565b34801561028f57600080fd5b50604051601281526020016101e9565b61024261068d565b3480156102b357600080fd5b50610255610730565b3480156102c857600080fd5b506102126102d736600461203b565b6107c0565b3480156102e857600080fd5b506102556107ff565b3480156102fd57600080fd5b5061024261030c3660046120bc565b61087b565b34801561031d57600080fd5b5061024261032c36600461203b565b6108de565b61025561033f3660046120bc565b610984565b34801561035057600080fd5b5061025561035f366004612065565b6001600160a01b031660009081526002602052604090205490565b34801561038657600080fd5b506102556103953660046120d5565b610b8f565b3480156103a657600080fd5b506102426103b536600461203b565b610c23565b3480156103c657600080fd5b506102556103d5366004612065565b6001600160a01b031660009081526007602052604090205490565b3480156103fc57600080fd5b506001546001600160a01b03165b6040516001600160a01b0390911681526020016101e9565b34801561042e57600080fd5b5061024261043d366004612117565b610d14565b34801561044e57600080fd5b506101dc610d42565b34801561046357600080fd5b506104776104723660046120bc565b610d51565b604080519283526020830191909152016101e9565b34801561049857600080fd5b506102126104a736600461203b565b610ec9565b3480156104b857600080fd5b506102126104c736600461203b565b610f5b565b3480156104d857600080fd5b506104ec6104e73660046121c8565b610f69565b6040516101e9919061223d565b34801561050557600080fd5b506102426105143660046120bc565b6110d9565b34801561052557600080fd5b5061024261053436600461229f565b6111b1565b34801561054557600080fd5b50610255610554366004612312565b611337565b34801561056557600080fd5b506101dc611362565b34801561057a57600080fd5b5060085461040a906001600160a01b031681565b60606005805461059d90612345565b80601f01602080910402602001604051908101604052809291908181526020018280546105c990612345565b80156106165780601f106105eb57610100808354040283529160200191610616565b820191906000526020600020905b8154815290600101906020018083116105f957829003601f168201915b5050505050905090565b60003361062e8185856113f0565b5060019392505050565b610640611514565b61065d576040516316ccb9cb60e11b815260040160405180910390fd5b61066681611541565b50565b600033610677858285611593565b610682858585611607565b506001949350505050565b60006106976107ff565b905060006106a6344784610b8f565b60085460405163a9059cbb60e01b8152336004820152602481018390529192506001600160a01b03169063a9059cbb90604401602060405180830381600087803b1580156106f357600080fd5b505af1158015610707573d6000803e3d6000fd5b505050506040513d601f19601f8201168201806040525081019061072b919061237a565b505050565b6000306001600160a01b037f00000000000000000000000000000000000000000000000000000000000000001614801561078957507f000000000000000000000000000000000000000000000000000000000000000046145b156107b357507f000000000000000000000000000000000000000000000000000000000000000090565b6107bb6117d5565b905090565b3360008181526003602090815260408083206001600160a01b038716845290915281205490919061062e90829086906107fa9087906123b2565b6113f0565b6008546040516370a0823160e01b81523060048201526000916001600160a01b0316906370a082319060240160206040518083038186803b15801561084357600080fd5b505afa158015610857573d6000803e3d6000fd5b505050506040513d601f19601f820116820180604052508101906107bb91906123ca565b336000908152600260205260409020548111156108d45760405162461bcd60e51b81526020600482015260126024820152716e6f7420656e6f7567682062616c616e636560701b60448201526064015b60405180910390fd5b610666338261186a565b6108e6611514565b6109325760405162461bcd60e51b815260206004820152601760248201527f4e6f7420617574686f72697a656420746f206d696e742e00000000000000000060448201526064016108cb565b806109765760405162461bcd60e51b815260206004820152601460248201527326b4b73a34b733903d32b937903a37b5b2b7399760611b60448201526064016108cb565b61098082826119b8565b5050565b60008047816109916107ff565b6008549091506001600160a01b031681610a3e576040516323b872dd60e01b8152336004820152306024820152604481018790526001600160a01b038216906323b872dd90606401602060405180830381600087803b1580156109f357600080fd5b505af1158015610a07573d6000803e3d6000fd5b505050506040513d601f19601f82011682018060405250810190610a2b919061237a565b50829350610a3933876119b8565b610b85565b6000610a4a34856123e3565b905080610a5784346123fa565b610a61919061242f565b871015610ad65760405162461bcd60e51b815260206004820152603e60248201527f416d6f756e74206f6620746f6b656e732073656e74206973206c65737320746860448201527f616e20746865206d696e696d756d20746f6b656e73207265717569726564000060648201526084016108cb565b6040516323b872dd60e01b8152336004820152306024820152604481018890526001600160a01b038316906323b872dd90606401602060405180830381600087803b158015610b2457600080fd5b505af1158015610b38573d6000803e3d6000fd5b505050506040513d601f19601f82011682018060405250810190610b5c919061237a565b508034610b6860045490565b0281610b7657610b76612419565b049450610b8333866119b8565b505b5091949350505050565b60008083118015610ba05750600082115b610bdf5760405162461bcd60e51b815260206004820152601060248201526f496e76616c696420526573657276657360801b60448201526064016108cb565b836000610bec84836123fa565b9050600082610bfc8760646123fa565b610c0691906123b2565b9050808281610c1757610c17612419565b04979650505050505050565b610c2b611514565b610c775760405162461bcd60e51b815260206004820152601760248201527f4e6f7420617574686f72697a656420746f206275726e2e00000000000000000060448201526064016108cb565b80610c97836001600160a01b031660009081526002602052604090205490565b1015610cda5760405162461bcd60e51b81526020600482015260126024820152716e6f7420656e6f7567682062616c616e636560701b60448201526064016108cb565b600081610ce78433611337565b610cf191906123e3565b9050610cff833360006113f0565b610d0a8333836113f0565b61072b838361186a565b610d1c611514565b610d3957604051639f7f092560e01b815260040160405180910390fd5b61066681611a97565b60606006805461059d90612345565b60008060008311610daf5760405162461bcd60e51b815260206004820152602260248201527f416d6f756e742073686f756c642062652067726561746572207468616e207a65604482015261726f60f01b60648201526084016108cb565b476000610dbb60045490565b90506000610dc860045490565b610dd287856123fa565b610ddc919061242f565b905060008287610dea6107ff565b610df491906123fa565b610dfe919061242f565b9050610e0a338861186a565b604051339083156108fc029084906000818181858888f19350505050158015610e37573d6000803e3d6000fd5b5060085460405163a9059cbb60e01b8152336004820152602481018390526001600160a01b039091169063a9059cbb90604401602060405180830381600087803b158015610e8457600080fd5b505af1158015610e98573d6000803e3d6000fd5b505050506040513d601f19601f82011682018060405250810190610ebc919061237a565b5090969095509350505050565b3360008181526003602090815260408083206001600160a01b038716845290915281205490919083811015610f4e5760405162461bcd60e51b815260206004820152602560248201527f45524332303a2064656372656173656420616c6c6f77616e63652062656c6f77604482015264207a65726f60d81b60648201526084016108cb565b61068282868684036113f0565b60003361062e818585611607565b60608167ffffffffffffffff811115610f8457610f84612101565b604051908082528060200260200182016040528015610fb757816020015b6060815260200190600190039081610fa25790505b509050336000805b848110156110d057811561103e5761101c30878784818110610fe357610fe3612451565b9050602002810190610ff59190612467565b86604051602001611008939291906124b5565b604051602081830303815290604052611b78565b84828151811061102e5761102e612451565b60200260200101819052506110be565b6110a03087878481811061105457611054612451565b90506020028101906110669190612467565b8080601f016020809104026020016040519081016040528093929190818152602001838380828437600092019190915250611b7892505050565b8482815181106110b2576110b2612451565b60200260200101819052505b806110c8816124db565b915050610fbf565b50505092915050565b60006110e36107ff565b905060006110f2838347610b8f565b6008546040516323b872dd60e01b8152336004820152306024820152604481018690529192506001600160a01b0316906323b872dd90606401602060405180830381600087803b15801561114557600080fd5b505af1158015611159573d6000803e3d6000fd5b505050506040513d601f19601f8201168201806040525081019061117d919061237a565b50604051339082156108fc029083906000818181858888f193505050501580156111ab573d6000803e3d6000fd5b50505050565b834211156112015760405162461bcd60e51b815260206004820152601d60248201527f45524332305065726d69743a206578706972656420646561646c696e6500000060448201526064016108cb565b60007f00000000000000000000000000000000000000000000000000000000000000008888886112308c611ba4565b6040805160208101969096526001600160a01b0394851690860152929091166060840152608083015260a082015260c0810186905260e00160405160208183030381529060405280519060200120905060006112ad61128d610730565b8360405161190160f01b8152600281019290925260228201526042902090565b905060006112bd82878787611bcc565b9050896001600160a01b0316816001600160a01b0316146113205760405162461bcd60e51b815260206004820152601e60248201527f45524332305065726d69743a20696e76616c6964207369676e6174757265000060448201526064016108cb565b61132b8a8a8a6113f0565b50505050505050505050565b6001600160a01b03918216600090815260036020908152604080832093909416825291909152205490565b6000805461136f90612345565b80601f016020809104026020016040519081016040528092919081815260200182805461139b90612345565b80156113e85780601f106113bd576101008083540402835291602001916113e8565b820191906000526020600020905b8154815290600101906020018083116113cb57829003601f168201915b505050505081565b6001600160a01b0383166114525760405162461bcd60e51b8152602060048201526024808201527f45524332303a20617070726f76652066726f6d20746865207a65726f206164646044820152637265737360e01b60648201526084016108cb565b6001600160a01b0382166114b35760405162461bcd60e51b815260206004820152602260248201527f45524332303a20617070726f766520746f20746865207a65726f206164647265604482015261737360f01b60648201526084016108cb565b6001600160a01b0383811660008181526003602090815260408083209487168084529482529182902085905590518481527f8c5be1e5ebec7d5bd14f71427d1e84f3dd0314c0f7b2291e5b200ac8c7c3b925910160405180910390a3505050565b60006115286001546001600160a01b031690565b6001600160a01b0316336001600160a01b031614905090565b600180546001600160a01b038381166001600160a01b0319831681179093556040519116919082907f8292fce18fa69edf4db7b94ea2e58241df0ae57f97e0a6c9b29067028bf92d7690600090a35050565b600061159f8484611337565b905060001981146111ab57818110156115fa5760405162461bcd60e51b815260206004820152601d60248201527f45524332303a20696e73756666696369656e7420616c6c6f77616e636500000060448201526064016108cb565b6111ab84848484036113f0565b6001600160a01b03831661166b5760405162461bcd60e51b815260206004820152602560248201527f45524332303a207472616e736665722066726f6d20746865207a65726f206164604482015264647265737360d81b60648201526084016108cb565b6001600160a01b0382166116cd5760405162461bcd60e51b815260206004820152602360248201527f45524332303a207472616e7366657220746f20746865207a65726f206164647260448201526265737360e81b60648201526084016108cb565b6001600160a01b038316600090815260026020526040902054818110156117455760405162461bcd60e51b815260206004820152602660248201527f45524332303a207472616e7366657220616d6f756e7420657863656564732062604482015265616c616e636560d01b60648201526084016108cb565b6001600160a01b0380851660009081526002602052604080822085850390559185168152908120805484929061177c9084906123b2565b92505081905550826001600160a01b0316846001600160a01b03167fddf252ad1be2c89b69c2b068fc378daa952ba7f163c4a11628f55a4df523b3ef846040516117c891815260200190565b60405180910390a36111ab565b60007f8b73c3c69bb8fe3d512ecc4cf759cc79239f7b179b0ffacaa9a75d522b39400f61180061058e565b80516020918201206040805192830193909352918101919091527fc89efdaa54c0f20c7adf612882df0950f5a951637e0307cdcb4c672f298b8bc660608201524660808201523060a082015260c00160405160208183030381529060405280519060200120905090565b6001600160a01b0382166118ca5760405162461bcd60e51b815260206004820152602160248201527f45524332303a206275726e2066726f6d20746865207a65726f206164647265736044820152607360f81b60648201526084016108cb565b6001600160a01b0382166000908152600260205260409020548181101561193e5760405162461bcd60e51b815260206004820152602260248201527f45524332303a206275726e20616d6f756e7420657863656564732062616c616e604482015261636560f01b60648201526084016108cb565b6001600160a01b038316600090815260026020526040812083830390556004805484929061196d9084906123e3565b90915550506040518281526000906001600160a01b038516907fddf252ad1be2c89b69c2b068fc378daa952ba7f163c4a11628f55a4df523b3ef9060200160405180910390a3505050565b6001600160a01b038216611a0e5760405162461bcd60e51b815260206004820152601f60248201527f45524332303a206d696e7420746f20746865207a65726f20616464726573730060448201526064016108cb565b8060046000828254611a2091906123b2565b90915550506001600160a01b03821660009081526002602052604081208054839290611a4d9084906123b2565b90915550506040518181526001600160a01b038316906000907fddf252ad1be2c89b69c2b068fc378daa952ba7f163c4a11628f55a4df523b3ef9060200160405180910390a35050565b6000808054611aa590612345565b80601f0160208091040260200160405190810160405280929190818152602001828054611ad190612345565b8015611b1e5780601f10611af357610100808354040283529160200191611b1e565b820191906000526020600020905b815481529060010190602001808311611b0157829003601f168201915b50508551939450611b3a93600093506020870192509050611f1b565b507fc9c7c3fe08b88b4df9d4d47ef47d2c43d55c025a0ba88ca442580ed9e7348a168183604051611b6c9291906124f6565b60405180910390a15050565b6060611b9d838360405180606001604052806027815260200161255760279139611bf6565b9392505050565b6001600160a01b03811660009081526007602052604090208054600181018255905b50919050565b6000806000611bdd87878787611c6e565b91509150611bea81611d32565b5090505b949350505050565b6060600080856001600160a01b031685604051611c139190612524565b600060405180830381855af49150503d8060008114611c4e576040519150601f19603f3d011682016040523d82523d6000602084013e611c53565b606091505b5091509150611c6486838387611e80565b9695505050505050565b6000807f7fffffffffffffffffffffffffffffff5d576e7357a4501ddfe92f46681b20a0831115611ca55750600090506003611d29565b6040805160008082526020820180845289905260ff881692820192909252606081018690526080810185905260019060a0016020604051602081039080840390855afa158015611cf9573d6000803e3d6000fd5b5050604051601f1901519150506001600160a01b038116611d2257600060019250925050611d29565b9150600090505b94509492505050565b6000816004811115611d4657611d46612540565b1415611d4f5750565b6001816004811115611d6357611d63612540565b1415611db15760405162461bcd60e51b815260206004820152601860248201527f45434453413a20696e76616c6964207369676e6174757265000000000000000060448201526064016108cb565b6002816004811115611dc557611dc5612540565b1415611e135760405162461bcd60e51b815260206004820152601f60248201527f45434453413a20696e76616c6964207369676e6174757265206c656e6774680060448201526064016108cb565b6003816004811115611e2757611e27612540565b14156106665760405162461bcd60e51b815260206004820152602260248201527f45434453413a20696e76616c6964207369676e6174757265202773272076616c604482015261756560f01b60648201526084016108cb565b60608315611eec578251611ee5576001600160a01b0385163b611ee55760405162461bcd60e51b815260206004820152601d60248201527f416464726573733a2063616c6c20746f206e6f6e2d636f6e747261637400000060448201526064016108cb565b5081611bee565b611bee8383815115611f015781518083602001fd5b8060405162461bcd60e51b81526004016108cb919061200c565b828054611f2790612345565b90600052602060002090601f016020900481019282611f495760008555611f8f565b82601f10611f6257805160ff1916838001178555611f8f565b82800160010185558215611f8f579182015b82811115611f8f578251825591602001919060010190611f74565b50611f9b929150611f9f565b5090565b5b80821115611f9b5760008155600101611fa0565b60005b83811015611fcf578181015183820152602001611fb7565b838111156111ab5750506000910152565b60008151808452611ff8816020860160208601611fb4565b601f01601f19169290920160200192915050565b602081526000611b9d6020830184611fe0565b80356001600160a01b038116811461203657600080fd5b919050565b6000806040838503121561204e57600080fd5b6120578361201f565b946020939093013593505050565b60006020828403121561207757600080fd5b611b9d8261201f565b60008060006060848603121561209557600080fd5b61209e8461201f565b92506120ac6020850161201f565b9150604084013590509250925092565b6000602082840312156120ce57600080fd5b5035919050565b6000806000606084860312156120ea57600080fd5b505081359360208301359350604090920135919050565b634e487b7160e01b600052604160045260246000fd5b60006020828403121561212957600080fd5b813567ffffffffffffffff8082111561214157600080fd5b818401915084601f83011261215557600080fd5b81358181111561216757612167612101565b604051601f8201601f19908116603f0116810190838211818310171561218f5761218f612101565b816040528281528760208487010111156121a857600080fd5b826020860160208301376000928101602001929092525095945050505050565b600080602083850312156121db57600080fd5b823567ffffffffffffffff808211156121f357600080fd5b818501915085601f83011261220757600080fd5b81358181111561221657600080fd5b8660208260051b850101111561222b57600080fd5b60209290920196919550909350505050565b6000602080830181845280855180835260408601915060408160051b870101925083870160005b8281101561229257603f19888603018452612280858351611fe0565b94509285019290850190600101612264565b5092979650505050505050565b600080600080600080600060e0888a0312156122ba57600080fd5b6122c38861201f565b96506122d16020890161201f565b95506040880135945060608801359350608088013560ff811681146122f557600080fd5b9699959850939692959460a0840135945060c09093013592915050565b6000806040838503121561232557600080fd5b61232e8361201f565b915061233c6020840161201f565b90509250929050565b600181811c9082168061235957607f821691505b60208210811415611bc657634e487b7160e01b600052602260045260246000fd5b60006020828403121561238c57600080fd5b81518015158114611b9d57600080fd5b634e487b7160e01b600052601160045260246000fd5b600082198211156123c5576123c561239c565b500190565b6000602082840312156123dc57600080fd5b5051919050565b6000828210156123f5576123f561239c565b500390565b60008160001904831182151516156124145761241461239c565b500290565b634e487b7160e01b600052601260045260246000fd5b60008261244c57634e487b7160e01b600052601260045260246000fd5b500490565b634e487b7160e01b600052603260045260246000fd5b6000808335601e1984360301811261247e57600080fd5b83018035915067ffffffffffffffff82111561249957600080fd5b6020019150368190038213156124ae57600080fd5b9250929050565b8284823760609190911b6bffffffffffffffffffffffff19169101908152601401919050565b60006000198214156124ef576124ef61239c565b5060010190565b6040815260006125096040830185611fe0565b828103602084015261251b8185611fe0565b95945050505050565b60008251612536818460208701611fb4565b9190910192915050565b634e487b7160e01b600052602160045260246000fdfe416464726573733a206c6f772d6c6576656c2064656c65676174652063616c6c206661696c6564a2646970667358221220b100e0c607a8b33d23af15b810c118538b7f45469974c80b7d716b62f7474fbe64736f6c63430008090033",
  "linkReferences": {},
  "deployedLinkReferences": {}
}