{
  "_format": "hh-sol-artifact-1",
  "contractName": "Multicall",
  "sourceName": "@thirdweb-dev/contracts/extension/Multicall.sol",
  "abi": [
    {
      "inputs": [
        {
          "internalType": "bytes[]",
          "name": "data",
          "type": "bytes[]"
        }
      ],
      "name": "multicall",
      "outputs": [
        {
          "internalType": "bytes[]",
          "name": "results",
          "type": "bytes[]"
        }
      ],
      "stateMutability": "nonpayable",
      "type": "function"
    }
  ],
  "bytecode": "0x608060405234801561001057600080fd5b506105a2806100206000396000f3fe608060405234801561001057600080fd5b506004361061002b5760003560e01c8063ac9650d814610030575b600080fd5b61004361003e36600461031a565b610059565b60405161005091906103eb565b60405180910390f35b60608167ffffffffffffffff8111156100745761007461044d565b6040519080825280602002602001820160405280156100a757816020015b60608152602001906001900390816100925790505b509050336000805b848110156101c057811561012e5761010c308787848181106100d3576100d3610463565b90506020028101906100e59190610479565b866040516020016100f8939291906104c7565b6040516020818303038152906040526101c9565b84828151811061011e5761011e610463565b60200260200101819052506101ae565b6101903087878481811061014457610144610463565b90506020028101906101569190610479565b8080601f0160208091040260200160405190810160405280939291908181526020018383808284376000920191909152506101c992505050565b8482815181106101a2576101a2610463565b60200260200101819052505b806101b8816104ed565b9150506100af565b50505092915050565b60606101ee8383604051806060016040528060278152602001610546602791396101f5565b9392505050565b6060600080856001600160a01b0316856040516102129190610516565b600060405180830381855af49150503d806000811461024d576040519150601f19603f3d011682016040523d82523d6000602084013e610252565b606091505b50915091506102638683838761026d565b9695505050505050565b606083156102de5782516102d7576001600160a01b0385163b6102d75760405162461bcd60e51b815260206004820152601d60248201527f416464726573733a2063616c6c20746f206e6f6e2d636f6e747261637400000060448201526064015b60405180910390fd5b50816102e8565b6102e883836102f0565b949350505050565b8151156103005781518083602001fd5b8060405162461bcd60e51b81526004016102ce9190610532565b6000806020838503121561032d57600080fd5b823567ffffffffffffffff8082111561034557600080fd5b818501915085601f83011261035957600080fd5b81358181111561036857600080fd5b8660208260051b850101111561037d57600080fd5b60209290920196919550909350505050565b60005b838110156103aa578181015183820152602001610392565b838111156103b9576000848401525b50505050565b600081518084526103d781602086016020860161038f565b601f01601f19169290920160200192915050565b6000602080830181845280855180835260408601915060408160051b870101925083870160005b8281101561044057603f1988860301845261042e8583516103bf565b94509285019290850190600101610412565b5092979650505050505050565b634e487b7160e01b600052604160045260246000fd5b634e487b7160e01b600052603260045260246000fd5b6000808335601e1984360301811261049057600080fd5b83018035915067ffffffffffffffff8211156104ab57600080fd5b6020019150368190038213156104c057600080fd5b9250929050565b8284823760609190911b6bffffffffffffffffffffffff19169101908152601401919050565b600060001982141561050f57634e487b7160e01b600052601160045260246000fd5b5060010190565b6000825161052881846020870161038f565b9190910192915050565b6020815260006101ee60208301846103bf56fe416464726573733a206c6f772d6c6576656c2064656c65676174652063616c6c206661696c6564a2646970667358221220481bdb4b9ad3b70fa2cf2fbbf7fc44d14b2c920bc586f205d0bc3ace8a56434a64736f6c63430008090033",
  "linkReferences": {},
  "deployedLinkReferences": {}
}